:020000040800F2
:10000000481B002065020008250300081D030008A6
:1000100021030008150300089D03000800000000EC
:100020000000000000000000000000002D03000898
:10003000190300080000000029030008310300082C
:100040007F0200087F0200087F0200087F0200088C
:100050007F0200087F0200087F0200087F0200087C
:100060007F0200087F0200087F0200087F0200086C
:100070007F0200087F0200087F0200087F0200085C
:100080007F0200087F0200087F0200087F0200084C
:10009000910300087F0200087F0200087F02000829
:1000A0007F0200087F0200087F0200087F0200082C
:1000B0007F0200087F0200087F0200087F0200081C
:1000C0007F0200087F0200087F0200087F0200080C
:1000D0007F0200087F0200087F0200087F020008FC
:1000E0007F0200087F0200087F0200087F020008EC
:1000F0007F0200087F0200087F0200087F020008DC
:100100007F0200087F0200087F0200087F020008CB
:100110007F0200087F0200087F0200087F020008BB
:100120007F0200087F0200087F0200087F020008AB
:100130007F0200087F0200087F0200087F0200089B
:1001400000000000000000000000000000000000AF
:100150007F0200087F0200087F0200087F0200087B
:100160007F0200087F0200087F0200087F0200086B
:100170007F0200087F0200087F0200087F0200085B
:100180007F02000800F002F800F05CF80AA090E896
:10019000000C82448344AAF10107DA4501D100F042
:1001A00051F8AFF2090EBAE80F0013F0010F18BFB3
:1001B000FB1A43F001031847802A0000A02A000020
:1001C0000A444FF0000C10F8013B13F0070408BF7D
:1001D00010F8014B1D1108BF10F8015B641E05D01B
:1001E00010F8016B641E01F8016BF9D113F0080FD0
:1001F0001EBF10F8014BAD1C0C1B09D16D1E58BF62
:1002000001F801CBFAD505E014F8016B01F8016B98
:100210006D1EF9D59142D6D370470000002300240B
:1002200000250026103A28BF78C1FBD8520728BF06
:1002300030C148BF0B6070471FB502F0CEFC1FBD38
:1002400010B510BD00F033F81146FFF7F5FF01F0CF
:1002500039FA00F051F803B4FFF7F2FF03BC00F0E5
:100260009FF800000948804709480047FEE7FEE77D
:10027000FEE7FEE7FEE7FEE7FEE7FEE7FEE7FEE756
:1002800004480549054A064B70470000350300083D
:100290008501000848150020481B00204817002051
:1002A0004817002070477047704770477047754681
:1002B00000F02CF8AE4605006946534620F00700D2
:1002C000854618B020B5FFF7DBFFBDE820404FF0B2
:1002D00000064FF000074FF000084FF0000BAC464F
:1002E000ACE8C009ACE8C009ACE8C009ACE8C0099A
:1002F00021F007018D46704710B50446AFF300802A
:100300002046BDE81040FFF7A6BF00000048704738
:1003100038010020FEE7000070470000FEE7000003
:10032000FEE70000704700007047000070470000C3
:10033000704700004EF68850CEF20000026841F28D
:10034000000142F47002C4F2020102600A6842F045
:1003500001020A600A689207FCD54A6822F003028B
:100360004A6000BF4A6812F00C0FFBD10A684FF6D2
:10037000FF73CFF6F2631A400A6000224A600A63F4
:100380004FF41F028A604FF0006140F8801C7047F4
:1003900041F21030C2F2000002F068BBFEE700003C
:1003A0007047000045F60402C4F2010213680028F9
:1003B00023F0020318BF02331360106861F30000DA
:1003C0001060704745F60C01C4F2010108607047E7
:1003D00045F61001C4F201010860704745F61401AA
:1003E000C4F20101086070472DE9F04182B0042099
:1003F00001F0E8FA40F23010C2F2000000684DF659
:100400008361C4F21B31A0FB0101880C40F29C11F6
:10041000C2F20001086008684FF47A71484340F264
:100420009811C2F2000140F270080860C2F20008A0
:10043000D8F80000012100F099FD6C46204601F03B
:10044000D7F840F27C06C2F2000640F284053188FB
:10045000C2F2000540F200472868C0F21017009170
:100460002146019701F0CEF8D8F80400012100F0F0
:100470007DFD6C46204601F0BBF8718868680091EC
:100480002146019701F0BEF8D8F80800012100F0DC
:100490006DFD6C46204601F0ABF8B188A86800916C
:1004A0002146019701F0AEF8308800281CBF29686A
:1004B0000861708800281CBF69680861B08800283E
:1004C0001CBFA96808610220C0F2180001210125A3
:1004D00000F04CFD6C46204601F08AF842F6000020
:1004E000C0F20010CDE9005040F60000C4F2010057
:1004F000214601F087F802B0BDE8F081F0B581B087
:100500000446406841F22405466A45F25531705967
:100510007719C4F242318842D7E90101C7E90901DC
:100520000DD12046012102F077FA1F2807D1787BF0
:10053000012804D8B87B113810F1110F29D840F2E6
:100540001011C2F200010520887060682022476AFD
:1005500041F22C003B580A744FF00201717043B114
:100560003844007928B9787818B92046012102F07A
:1005700003FB2046812102F0FFFA787802282FD170
:100580007A19204601211F2301B0BDE8F04002F096
:10059000EFB8204600F068F8C8B16068456A41F2DB
:1005A0002C00295841B12844007928B9687818B935
:1005B0002046012102F0E0FA2046812102F0DCFA17
:1005C000687802280CD141F224002A18D9E7307843
:1005D000042807D8012101FA00F010F0160F01D00D
:1005E00001B0F0BDF2693AB106F12001204601B038
:1005F000BDE8F04000F0C4BA2046002101B0BDE8DB
:10060000F04000F09FBA0000B0B504464068456A6B
:100610006878022806D12046812102F0ADFA002038
:100620006870B0BD49B2B1F1FF3FFADC012808BFE4
:10063000B0BD41F244002A180120D06045F2553087
:10064000C5F24230106007202870204681210D231A
:1006500002F0AEF841F224002A18204601211F239F
:10066000BDE8B04002F084B870B541684C6A41F210
:100670003301625C5A2A00F2678041F22C03214464
:10068000E618DFE812F05E006100610069006100B9
:100690006100610061006100610061006100610052
:1006A000610061006100610061007D006100610026
:1006B0006100610061006100610089005B00610010
:1006C00061005B0061006100610061009B006100EE
:1006D000C90061006100F6006100FB00610061007B
:1006E0006100610000016100610061006100610062
:1006F00061006100610061006100610061006100F2
:1007000061006100610061006100610061006100E1
:1007100061006100610061006100610061006100D1
:1007200061006100610061006100610061006100C1
:10073000610061006100610061001F010020E06153
:1007400070BD30680028F9D040F21010C2F20000ED
:10075000052181702021CEE040F2101204F1310019
:100760000021C2F2000200BF53185B7C43540139E0
:1007700011F11203F8D13068112888BF122075E0FA
:100780004878C00740F0BA80707900F027FF3168E0
:10079000242928BF2421B6E0082040F2A022E061ED
:1007A00004F127000021C2F2000200BF5318DB79D8
:1007B0004354013911F10803F8D1ADE070794FF0DD
:1007C000006104EB8005216205F1080105F10C02CE
:1007D00000F0A8FFA8680138000E84F82400A8687B
:1007E000297A0138000C84F82500A8680138000A2D
:1007F00084F82600481E84F82700022084F8280088
:10080000E88984F82900E868000A84F82A00E86882
:1008100084F82B000C2029E0707904EB800505F1A9
:10082000080105F10C0200F07DFFA8680138000EF8
:1008300084F82000A868297A0138000C84F8210087
:10084000A8680138000A84F82200481E84F82300B2
:10085000E87B84F82400E88984F82500E868000A29
:1008600084F82600E86884F827000820E06100206A
:1008700070BD7179BDE8704000F0CEB87179BDE807
:10088000704000F099B9487880072DD4D1F8020063
:10089000B1F8071072790EBA49BAA16104EB82016E
:1008A00000BA8968C317206100EB16408842636173
:1008B0007FF644AF40F21010C2F2000005218170B3
:1008C000212118E0082040F29002E06104F12700A5
:1008D0000021C2F2000200BF5318DB7943540139F2
:1008E00011F10803F8D117E040F21010C2F2000035
:1008F0000521817024210174012070BD41F208306E
:10090000C2F200000521E16131B104F11F0201389A
:10091000435C53540139FBD1002070BDB0B504468F
:100920004068456A2878C11E022901D200200AE0E9
:10093000012822D12046FFF797FE002808BFB0BD4E
:100940006068456A012041F244016A18D06045F2AE
:100950005530C5F24230685007202870204681216A
:100960000D2301F025FF41F224002A182046012121
:100970001F23BDE8B04001F0FBBEB0BDB0B50446DA
:100980004068406A0078022807D0072818BFB0BD29
:100990002046BDE8B040FFF7B1BD2046FFF764FE3A
:1009A000E0B160680121456A41F244002A18D16033
:1009B00045F25531C5F242312950072028702046B2
:1009C00081210D2301F0F4FE41F224002A18204673
:1009D00001211F23BDE8B04001F0CABEB0BD000038
:1009E00080B5416841F24402496A4FF0000E01EBC4
:1009F000020C072341F802E041F224020B80C1F807
:100A000004E0CCF804E00A4401211F23CCF808E0FC
:100A1000BDE8804001F0ACBE2DE9F04182B0044653
:100A2000406841F22C02466A307806EB020807283B
:100A300036D198F90400002807D440F21010C2F211
:100A4000000005218170202143E0B8F80E30D8F86D
:100A500009001FBA5BBAB36106EB810500BAAD6845
:100A600000EB1747C217AF423061726107D940F2FD
:100A70001010C2F2000005218170212129E006EB4F
:100A80008107FF68A7FB00053061D8F8000007FB6D
:100A900002527B4398427261B361CED10120307023
:100AA000B0694FF48057D6E90423F761B0F5805F51
:100AB00038BF074606F1200508460095019700F06B
:100AC00061FE58B140F21010C2F2000004218170A2
:100AD0003A210174012002B0BDE8F081BBB220468A
:100AE00081212A4601F064FE06F1100207CAC019EE
:100AF00041F10001C6E90401D8F82000D21BA0EBA7
:100B00000700B261C8F8200004BF04203070002044
:100B100002B0BDE8F081000080B541684FF0000EE2
:100B2000D1F824C040F20711ACF8001041F22401C2
:100B30000CEB010201211F23CCF804E0BDE880404A
:100B400001F016BEB0B5044640680D23456A41F277
:100B500044002A18D16045F25531C5F2423129507E
:100B6000072028702046812101F022FE41F2240056
:100B70002A18204601211F23BDE8B04001F0F8BD2E
:100B800010B543688C46D3F824E041F22C015EF89E
:100B900001307144934238BF1A460C6A93B2E21A8C
:100BA0000024C1E908240324812162468EF8004014
:100BB000BDE8104001F0FCBD2DE9F04182B0804657
:100BC000406841F22C02456A2878AF1807281FD1E7
:100BD00097F90400B0F1FF3F35DDFB89D7F8090034
:100BE0001EBA5BBAAB6105EB810400BAA46800EBE6
:100BF0001646C217A64228616A615AD940F21010FF
:100C0000C2F200000521817021210174012582E0DA
:100C1000A869D5E904234FF48054B0F5805F38BF4C
:100C200084B205F1200608460096019400F0BCFD50
:100C300098B140F21010C2F20000042181703A21F4
:100C40000174012567E040F21010C2F20000052196
:100C500081702021017401255DE005F1100207CAB1
:100C6000001941F10001C5E90401386A131BA0EB2A
:100C70000400AB61386239D1D8F8040045F255312F
:100C8000446A41F24400C5F2423122182150072043
:100C900000252070404681210D23D56001F088FD9C
:100CA00041F224002218404601211F2301F060FD7B
:100CB00031E005EB8101C968A1FB000628613868B5
:100CC00001FB02624B4398426A61AB611AD1022078
:100CD00005F8200B404601212A46B3F5805F28BF66
:100CE0004FF4805301F044FD002514E040460121FB
:100CF0003246B3F5805F28BF4FF4805301F038FDD2
:100D0000002508E040F21010C2F2000005218170B9
:100D1000202101740125284602B0BDE8F0810000C1
:100D200010B58121044601F0C1FC2046012101F0EB
:100D3000BDFC002010BD000080B5002101F06CFE5C
:100D4000002080BD002070470020704780B5FFF76D
:100D5000E5FD002080BD000010B581210222402366
:100D6000044601F0E3FC204601210222402301F069
:100D7000DDFC2046FFF734FE002010BD80B5FFF7F4
:100D8000FDFD002080BD0000B0B5044640680D4662
:100D90000978406A11F0600108D0202917D16978DC
:100DA000FF2919D0FE290DD1011D2FE069780139E5
:100DB0000A2907D8DFE801F018060E06060606061F
:100DC00006283000204601F075FA0020B0BD20460C
:100DD00001F070FA0020B0BD2046FFF79DFE2046CE
:100DE00001F05EFA0020B0BD2979204601F05EFCDA
:100DF000297920460222402301F098FC29792046D7
:100E0000FFF702FC0020B0BD00F581512046012211
:100E100001F03AFA0020B0BD69884FF48152815048
:100E20000020B0BD0020704741F20401C4F202016D
:100E30000A6800F00F0022F0F00242EA0010086099
:100E40007047000041F20401C4F202010A6800F098
:100E5000070022F4E06242EA0020086070470000C8
:100E600041F20401C4F202010A6800F0070022F412
:100E7000605242EAC02008607047000041F254010D
:100E8000C4F202010A68012822F0300208BF3032A1
:100E90000A607047042888BF7047DFE800F0030C41
:100EA00019262F0041F20000C4F20200026861F32B
:100EB00000020260704741F20000C4F202000268C2
:100EC00001F0010122F4803242EA014101607047E1
:100ED00041F20000C4F20200026801F0010122F0B8
:100EE000807242EA01610160704741F20000C4F281
:100EF0000200026A61F300020262704741F20000E0
:100F0000C4F20200426A61F30002426270470000CC
:100F100041F20002010CC4F20202895800F01F00E5
:100F200021FA00F000F001007047000041F2540186
:100F3000C4F202010A6800F0030022F4405242EABF
:100F4000003008607047000041F200010020C4F248
:100F5000020100BF0A68920304D4B0F5405F00F1BB
:100F60000100F7D30868C0F34040704741F2000227
:100F700000F01F034FF0010CC4F2020201290CFA29
:100F800003F14FEA1040835814BF23EA01011943CB
:100F90008150704780B541F2040EC4F2020EDEF8B3
:100FA00000C070B14CF48033CEF80030DEF800C0E1
:100FB000012814BF4CF400302CF40030CEF80000AF
:100FC00009E02CF48030CEF80000DEF82C0040F070
:100FD0000070CEF82C00DEF8000061F39540CEF8EA
:100FE0000000DEF80000090961F35E70CEF8000031
:100FF000DEF8000020F0004040EAC270CEF80000A9
:1010000080BD000041F20000C4F20200016841F01E
:101010000101016001688907FCD5416821F00301E5
:10102000416000BF416811F00C0FFBD101684FF621
:10103000FF72CFF6F262114001600021416001634E
:101040004FF41F018160704741F20401C4F20201B4
:101050000A6860F301020A607047000041F2040070
:10106000C4F202000068C0F38100704741F204013D
:10107000C4F202010A6860F397520A600A688008A5
:1010800060F3DB620A60704741F254010128C4F248
:10109000020109D151F8242C42F0007241F8242CAD
:1010A0000A6842F400720A600A6800F0010022F443
:1010B000807242EA00200860704700000246002368
:1010C0006FF31202C0F608039A421AD0B2F1006F11
:1010D0001CBF0320704742F20C02C4F202025368A4
:1010E00043F00103536001701068C0071FD11068FE
:1010F00040071ED41068C0064FF0020058BF0320FE
:1011000018E042F20C02C4F20202536C43F00103F5
:1011100053640170106CC0072DD1106C40072CD4A3
:10112000106CC0064FF0020058BF032026E00020DC
:1011300000E00120002802F1040C3FD14FF480119F
:101140001068C0070AD11068400709D41068C006AB
:101150004FF0020058BF032003E000BF002000E072
:101160000120A1F1010310B901291946E8D1002B92
:1011700008BF042022E0002000E0012002F1440C1E
:10118000E0B94FF4801300BF106CC0070AD1106C97
:10119000400709D4106CC0064FF0020058BF03206E
:1011A00003E000BF002000E00120A3F1010110B91D
:1011B000012B0B46E8D1002908BF0420DCF8001001
:1011C00021F00101CCF800107047000042F210003D
:1011D000C4F20200016841F080010160016C41F03D
:1011E0008001016470470000014600226FF3120184
:1011F000C0F6080291421ED0B1F1006F37D142F221
:101200000C01C4F202014A6842F002024A6088609E
:10121000486840F0400048600868C00750D108683E
:10122000400758D40868C0064FF0020058BF03209A
:1012300000286FD151E042F20C01C4F202014A6C65
:1012400042F002024A648864486C40F040004864FE
:10125000086CC00737D1086C400760D4086CC00622
:101260004FF0020058BF0320002877D159E0B0F1B9
:10127000046F3CBF0320704742F20C01C4F202012C
:10128000D1F8842042F00202C1F88420C1F888001D
:10129000D1F8840040F04000C1F88400D1F880000B
:1012A000C00714D1D1F8800040075CD4D1F8800089
:1012B000C0064FF0020058BF0320002872D154E04E
:1012C000002038BB09E00020002847D129E0002099
:1012D000002867D149E00120E0B94FF0804200BF0B
:1012E0000868C0070AD10868400709D40868C00622
:1012F0004FF0020058BF032003E000BF002000E0D1
:101300000120A2F1010310B9012A1A46E8D1002BED
:1013100008BF04204A6822F002024A607047012098
:10132000E0B94FF0804200BF086CC0070AD1086CDA
:10133000400709D4086CC0064FF0020058BF0320D4
:1013400003E000BF002000E00120A2F1010310B97A
:10135000012A1A46E8D1002B08BF04204A6C22F06B
:1013600002024A6470470120E0B90222D1F88000ED
:10137000C0070BD1D1F88000400709D4D1F8800014
:10138000C0064FF0020058BF032002E0002000E03A
:10139000012002F1010310B9002A1A46E6D1012BFF
:1013A00008BF0420D1F8842022F00202C1F8842072
:1013B0004FF00461096841F20001C0F6400109687C
:1013C00042F20001C0F640010968704742F2040091
:1013D00040F2231148F6AB12C4F20200C4F2675186
:1013E000CCF6EF52016002600164026470470000B5
:1013F00080B542F61D40C0F6000040F2A01C013846
:101400004D236FF00102C2F2000C4FF0000E00BF3E
:101410000CEB02010B7183780232242A00F10100E7
:1014200081F805E0F4D14FF44A70ACF8000041F2C5
:101430004050C2F2000028210180C0F804C080BDE5
:1014400040F20000C2F200007047000040F20800C5
:10145000C2F200007047000080B542F6F430C0F6DA
:10146000000040F2A01C01384D236FF00102C2F2CF
:10147000000C4FF0000E00BF0CEB02010B718378E3
:1014800002322A2A00F1010081F805E0F4D140F28D
:101490002E30ACF8000041F24050C2F200002E2184
:1014A0000180C0F804C080BD40F26800C2F20000B4
:1014B0007047000080B542F63140C0F6000040F2AF
:1014C000A01C013841236FF00102C2F2000C4FF062
:1014D000000E00BF0CEB02010B71837802320A2A66
:1014E00000F1010081F805E0F4D140F20E30ACF8D3
:1014F000000041F24050C2F200000E210180C0F80D
:1015000004C080BD0020704780B542F60B40C0F695
:10151000000040F2A01C013841236FF00102C2F22A
:10152000000C4FF0000E00BF0CEB02010B71837832
:101530000232202A00F1010081F805E0F4D14FF4D5
:101540004970ACF8000041F24050C2F20000242182
:101550000180C0F804C080BD0020704770B54FF214
:10156000E870C1F6FF7001688268891831D0406860
:1015700040F2140C6FF00102C2F2000C4FF0370E73
:10158000002300BF0CEB02050EEB1176B1F1204FEA
:1015900002F102024FEA117438BF04F1300609016A
:1015A0000E2A2E716B71EDD10CF1100104224FF057
:1015B000370C00230CEB1075B0F1204F4FEA10767A
:1015C00038BF06F1300501F8025F0001013A4B70A7
:1015D000F0D140F22810C2F2000070BD40F2E801E4
:1015E000C2F20001002818BF002108467047000021
:1015F00040F200424FF6FF71C0F20012C0E9001243
:1016000070470000B0B58B790A88032B0BD07BB9EB
:101610004979282901F00F0E18D0182908BF026156
:10162000110616D12EE04FF0000E110611D129E05F
:1016300003F0080C0B79C97903F00403634401F04B
:10164000030103EB010E110603D11BE042611106F9
:1016500018D000234FF00F0C002104E001310829BD
:1016600003F104030ED022FA01F4E407F6D0046873
:101670000CFA03F5AC43046004680EFA03F52C433E
:101680000460EBE7B2F5807F38BFB0BD120A0023DB
:101690004FF00F0C002104E00131082903F104038D
:1016A0000ED022FA01F4E407F6D044680CFA03F5F0
:1016B000AC43446044680EFA03F52C434460EBE706
:1016C000B0BD000082B0032000F0DAF800F0E8F8C6
:1016D000FEF78AFE012000F093F91720C0F21C00EB
:1016E0000121FFF743FC142000210022002500F017
:1016F0008DF841F21034C2F2000440F2980240F238
:10170000C00345F60041C2F20002C2F20003C4F277
:1017100000012046009500F003FD204600F086FC05
:10172000FEE7000010B54FF2E073C1F6FF731C68CE
:101730004BF20003CFF6FF7303EB842C40F2A82397
:10174000C2F20003C3F800C04FF40063B4F5807F19
:1017500040F20C1E38BF4FF48063C2F2000ECEF888
:10176000003008B1002010BD0B20B4F5807F38BFD9
:101770000A202CFA00F00860DEF80000106000205B
:1017800010BD000070B9019860B1009B02F10061CA
:1017900001F5A0415A1E00BF11F8013B013802F8C3
:1017A000013FF9D10020704708B1002070472DE9B2
:1017B000F041079F02F1006000F5A044FFF706FE2C
:1017C000B7F5006F0ED34FF0000825463E4600BF28
:1017D0002846FFF709FDA6F50066B8EBD62F05F5FC
:1017E0000065F5D15FB10698451E00BF15F8011FD1
:1017F0002046FFF763FC013F04F10104F6D1FFF737
:10180000E5FCBDE8F041002070470000B0B54EF6A1
:101810000C5ECEF2000EDEF800304FF0FF35C3F361
:10182000022383F00704042C28BF0424033B05FA99
:1018300004F438BF0023A143994005FA03F39A4307
:1018400000F00F03043B4EF2001C7344CEF2000C78
:1018500011430C33B0F1FF3F4FEA011100EB0C02D2
:10186000C8BF02F540730028197048BFB0BD00F032
:101870001F01012202FA01F140094CF82010B0BD0D
:101880004EF60C51CEF200010A684FF6FF031A40E3
:1018900060F30A2242F0806040F0FD7008607047FB
:1018A00080B5FFF7AFFB01200121FFF7F3FA00BF7E
:1018B000FFF74AFB0028FBD002202F210122FFF76F
:1018C00069FB0020FFF732FB02200121FFF7E2FA5B
:1018D0001920FFF71DFB0128FAD10020FFF7A4FA19
:1018E0000420FFF7BDFA0420FFF7ACFA0120FFF750
:1018F000C5FA0220FFF7A8FBFFF7B0FB0228FBD1D7
:101900000020FFF7BBFABDE8804000F001B80000FE
:10191000B0B541F2040441F20025C4F20204C0F261
:101920007A05FFF79BFB02280BD0A0BB206D80053A
:1019300031D5E06A800144BF46F60045C0F2DC259F
:1019400029E0D4F800C021682268C1F38341C2F3C2
:1019500041721301581C0F29034618BF0223002AA5
:1019600018BF03465FEACC3003EB010006D440F613
:101970000011C0F23D0100FB01F50CE02168890374
:1019800001D4454307E0216DC1F301310231B5FBBC
:10199000F1F101FB00F540F23010C2F200000560E9
:1019A000216804A2C1F30311515C026822FA01F11B
:1019B0000160B0BD0000000000000000010203044F
:1019C000060708094EF21001CEF200010A68042849
:1019D00022F0040208BF04320A60704740F22E0071
:1019E000C2F20000402101807047000040F22E0248
:1019F000C2F2000211880B180846138070470000DD
:101A000080B508B340F23010C2F20000006840F622
:101A1000FF51C0F22771884231DD47F6FF11C0F651
:101A20000321884242DC40F60061C0F227718842FF
:101A30004ED044F20041C0F6950188425CD10520A9
:101A4000BDE88040FFF712BB0120FFF71DFB162009
:101A5000C0F218000121FFF789FA41F62C70FEF759
:101A6000B1FC4FF4FA50FEF7B3FC41F65470FEF7A8
:101A7000B5FC02200121BDE88040FEF793BC46F68C
:101A80000041C0F2DC21884227D04AF20021C0F296
:101A90004A41884226D04DF60001C0F2B851884232
:101AA0002AD10320BDE88040FFF7E0BA47F60021C5
:101AB000C0F6032188421AD04BF20001C0F6713102
:101AC000884218BF80BD0620BDE88040FFF7CEBA2F
:101AD0000220BDE88040FFF7C9BA0120BDE8804080
:101AE000FFF7C4BA0020BDE88040FFF7BFBA04206A
:101AF000BDE88040FFF7BABA80BD0000016C21F05C
:101B000002010164016E21F00201016670470000CC
:101B1000016C21F001010164002141640165802113
:101B2000C164016C41F41E4101647047016C41F0D5
:101B300008010164016C41F0040101647047000078
:101B4000B0B5887A45F600450028C4F200054AD0B1
:101B50000A7855F822305B060BD555F822C040F6BE
:101B60000F730CEA030C48F2C00343EA0C0345F878
:101B700022300A7855F822305B040BD555F822C084
:101B800040F60F730CEA030C4CF2800343EA0C039B
:101B900045F822300A788B7855F8220040F60F7409
:101BA00020404CF28004012B08BF48F2C0042044BE
:101BB00045F822000A7843F60F7C48F2800E40F682
:101BC0003F7355F82200184040EA0E0045F8220005
:101BD000087848F2800255F8201001EA0C01114300
:101BE00045F82010B0BD0A788B7855F822C0012B3B
:101BF00009D15FEA4C6340F63F7CE9D548F2C00E5C
:101C000040F60F73DDE75FEA4C4343F60F7CDFD508
:101C10004CF2800E40F60F73D3E700002DE9F0433D
:101C20000A7845F60040C4F2000050F8223048F629
:101C300080774E783B40334340F82230CB78032BFB
:101C40000AD84FF40072DFE803F00B020709012203
:101C50008A724FF4806203E0002201E04FF4C06218
:101C60000B7848F68F1650F8237037403A4340F807
:101C700023208B788A7A012B55D1002A00F08F809F
:101C80000A7840F60F6750F8223040F230063B40A9
:101C900048F280173B4340F822308B88076D0A7862
:101CA000C2F20006356807EBC20745F81730CB884B
:101CB000076D366807EBC20706EB4707BB6050F8B5
:101CC00022305B0609D550F8223040F60F773B40B2
:101CD00048F2C0073B4340F822300A7850F82230DF
:101CE0005B0409D550F8223040F60F773B404CF2A8
:101CF00080073B4340F822300A7840F60F7750F8CF
:101D000022303B404CF280073B4340F822300A78B7
:101D100043F60F7750F822303B4048F280073B43B0
:101D200040F8223055E0002A60D00A7840F60F676C
:101D300050F8223040F2300C3B4048F280173B43D1
:101D400040F822308B88076D0A78C2F2000CDCF86C
:101D5000006007EBC20746F81730CB88076DDCF848
:101D6000006007EBC20706EB4707BB60036DDCF8BA
:101D7000007003EBC2050B8948F2000E4FEAC2095E
:101D80003E1D3F2BCFF6FF7E63D35F094FF0FF3838
:101D9000DC0608BF08EB53174EEA87275EE040F2E7
:101DA00030068B88076D0A78C2F20006366807EBAA
:101DB000C20746F8173050F822305B0609D550F8B4
:101DC000223040F60F773B4048F2C0073B4340F8D3
:101DD0002230097840F63F7350F821201A4048F22B
:101DE000A0035A4040F82120BDE8F08340F23006BD
:101DF000CB88076D0A78C2F20006356807EBC20788
:101E000005EB4707BB6050F822305B0409D550F85A
:101E1000223040F60F773B404CF280073B4340F8BE
:101E20002230036D0A780D89316803EBC2033F2D20
:101E300001F10C016FD36F094FF0FF36EC0608BFBC
:101E400006EB551748F20006CFF6FF7646EA8727DD
:101E500066E001249C4304EB5304A702BCB246F89D
:101E60001540046DDCF800704C443F2B07F10C0664
:101E700009D35F094FF0FF3CDD0608BF0CEB531799
:101E80004EEA872304E001279F4307EB53039B029D
:101E90009BB246F8143050F822305B0609D550F852
:101EA000223040F60F773B4048F2C0073B4340F8F2
:101EB00022300A7850F822305B0409D550F82230DD
:101EC00040F60F773B404CF280073B4340F822300E
:101ED0000A7840F60F7750F822303B4048F2C007AE
:101EE0003B4340F822300A7843F60F7750F822300F
:101EF0003B404BF280077B4040F82230097840F6A7
:101F00003F7350F821201A4048F280031A4340F8EA
:101F10002120BDE8F0830127AF4307EB5507BF023F
:101F2000BFB241F8137050F8221043F60F731940F6
:101F30004BF28003594040F82210BDE8F0830000C6
:101F4000016C21F008010164016C21F004010164BD
:101F500070470000C943416470470000002A08BF71
:101F6000704740F23003C2F200031B6801324FEAAF
:101F7000520C03EB41030121BCF1010F88BF510852
:101F800002381A1F32F8043F013920F8023FF9D114
:101F900070470000C26C61F30602C264C16C41F07C
:101FA0008001C16470470000002A08BF704740F2FA
:101FB0003003C2F200031B6801324FEA520C03EBFC
:101FC00041030121BCF1010F88BF510802381A1FDB
:101FD00030F8023F013922F8043FF9D17047000080
:101FE00080B54AB201F07F0100EB411000F10C0115
:101FF000B2F1FF3FC8BF00F5867140F63F70C8BF21
:1020000043F60F700B7845F6004CC4F2000C5CF8F8
:1020100023E048F2B00200EA0E00C8BF4BF2800293
:1020200050404CF823000020C87280BD0068FFF7C4
:1020300065BD00002DE9F041044669B16068426960
:10204000002A08BFBDE8F08194F8240203281FD1BC
:102050002046BDE8F041104794F82002022817D12D
:1020600001F07F0604EB46152F4637F8260F37F8A8
:10207000123C98420ED9C61AB0B22A6A984238BFAA
:102080000346204600213E80BDE8F04100F090BBB1
:10209000BDE8F081284630F8241F45F600479942F4
:1020A000C4F2000720D1298D99421DD3B4F8222211
:1020B000914219D24FF00008A0F80080204600217C
:1020C0000022002300F074FBC5F82081C5F81A81B6
:1020D00057F8260043F60F7108404BF28001484044
:1020E00047F82600BDE8F0816068C16829B194F81E
:1020F0002402032801D120468847052084F82002C5
:102100000020C4F82001C4F81A01386843F60F71A2
:1021100008404BF2800148403860BDE8F081000083
:10212000B0B58C4680E80E004FF0010E00F11003B0
:1021300000210022002480F824E200BF8518995273
:1021400020322C736C73B2F5807F04F1010485F8A2
:102150000EE029626983C5F81210EFD10021002238
:10216000002300BF8518203285F80C3185F80D3129
:10217000B2F5807F03F1010385F80E11A5F8141163
:10218000C5F82011A5F81A11C5F81011EAD160465A
:10219000BDE8B040FFF7BCBC10B5044659B160685B
:1021A0008269A2B394F82402032818BF10BD204608
:1021B000BDE81040104794F82002032827D101F011
:1021C0007F0004EB4011B1F82631B1F8142193429D
:1021D0001ED99B1A01F5937C9CB2ACF80030944256
:1021E00028BF14460023D4FA52F2A1F81C31A1F8FA
:1021F0001A2145F60041C4F2000151F8202043F6AF
:102200000F731A404BF280035A4041F8202010BD52
:102210006068016909B1204688474FF0040C2046E8
:1022200000210022002384F820C2BDE8104000F005
:10223000BFBA000010B5044600F5037004F505713F
:1022400000F0C0FC012084F8200294F80C02B4F8DD
:10225000121200F01F000228A4F8221209D001284F
:102260000CD0002818BF10BD2046BDE8104000F07B
:1022700045B82046BDE8104000F060B92046BDE8F2
:10228000104000F0D1BB000013460A464FF0020C8C
:1022900000210385C38480F820C200F089BA0000C1
:1022A0004FF0040C00210022002380F820C200F02F
:1022B0007FBA000080B590F80C1145F6004CC4F2CE
:1022C000000C5CF8213043F60F721A4049F280038B
:1022D0005A404CF821204FF0010E027B80F817E1A4
:1022E0005CF8223040F63F71194048F290035940A3
:1022F0004CF8221080F817E080BD0000B0B504460D
:1023000090F80C0204F5037110F0600F05D06068BE
:102310008268204690470020B0BD94F80D0209283D
:1023200033D8DFE800F0051A323732476032718166
:1023300094F8240200F0FE00022840F0828094F815
:10234000270228B1B4F82A0240F00200A4F82A02B9
:1023500004F22A2120460222E1E094F8240200F04F
:10236000FE0002286DD1B4F80E02012810D1002021
:1023700084F82702B4F82A02626820F0020092680A
:10238000A4F82A02204690470FE02046FFF792FF6C
:102390000020B0BDB4F80E020128F9D16068012216
:1023A0008368204684F8272298472046FFF778FF65
:1023B0000020B0BDB4F81002002842D1B4F81202D7
:1023C00000283ED194F8240203283AD094F80E0253
:1023D00010F07F0084F826024FF0020008BF0120B1
:1023E00084F82402E1E7B4F80E024FF0FF3202EB6A
:1023F0001022062A25D8DFE802F004292D242438EB
:102400002400A068006823E0B4F81202012818D163
:1024100094F8240203282DD0022812D1002004F5BC
:102420000A7184F8280227E0B4F81012B4F80E02FA
:1024300041F23C55C2F20005287011B9B4F81212ED
:10244000E9B12046FFF736FF0020B0BDA0688068E4
:10245000804753E0C0B2052836D8DFE800F0033CDF
:102460003F424548A068006943E02046FFF722FF4D
:10247000002043E004F22921204601224FE094F895
:102480002412C0B203290CD00229DAD100283FF46B
:102490008CAF84F8290260680321026884F8241252
:1024A0000FE000283FD094F8291281427FF47DAFDD
:1024B000606841682046884760682978026884F827
:1024C00029122046904770E760688268204690474E
:1024D000002000210FE0A06840690AE0A068806940
:1024E00007E0A068C06904E0A068406A01E0A06855
:1024F000006A8047012100293FF44AAF00283FF4D9
:1025000047AF0388002B3FF443AFB4F81222002AF0
:102510003FF43EAF4168934238BF1A462046FFF76A
:10252000B3FE0020B0BD6268022184F82412516815
:1025300084F829022046884737E7000070B5044632
:1025400090F80C0204F5037510F0600F06D0606877
:102550002946826820469047002070BD94F80D12ED
:10256000B4F8100203291BD0012922D079BB94F8BA
:102570002412032935D002292ED110F07F0600F055
:10258000800503D0C1B2204600F0F6FA04EB4610F5
:1025900000F10C01002D08BF00F5867100202FE02E
:1025A00094F82412032933D0022915D1410608D109
:1025B00010E094F8241203293AD002290CD14106E4
:1025C00008D0C1B2204600F0D7FA002070BD2046E6
:1025D000FFF770FE002070BD2046FFF76BFE002065
:1025E00070BD00F07F0104EB411202F10C01000606
:1025F00058BF02F58671C87A0138B0FA80F04009F8
:1026000021F80C0F20460222FFF73EFE002070BD8D
:10261000B4F80E1231B910F07F0103D0C1B22046D8
:1026200000F0AAFA606829468268204690470EE0CA
:10263000B4F80E120029CDD1410608D0C1B220460F
:10264000FFF7CEFC60682946826820469047204606
:10265000FFF726FE002070BD0068FFF767BA000094
:1026600010B50446807A70B1A08818B92089FFF7A8
:10267000BDF9A080E088002818BF10BD2089FFF7B1
:10268000B5F9E08010BDA078012807D1A088002806
:10269000F8D12089FFF7AAF9A08010BDE0880028B2
:1026A000F0D12089FFF7A2F9E08010BD4AB201F015
:1026B0007F0100EB4113006803F58671002A48BFD3
:1026C00003F10C01FFF73CBA10B500F1100E002227
:1026D0004FF0010C00230021C4182EF803202033F2
:1026E00021736173B3F5807F01F1010184F80EC09D
:1026F00022626283C4F81220EED10021002200235E
:102700008418203284F80C3184F80D31B2F5807FC2
:1027100003F1010384F80E11A4F81411C4F8201178
:10272000A4F81A11C4F81011EAD110BDB0B54DB219
:10273000046801F07F01002D00EB411005D4002159
:1027400000F5867580F80E1103E000F10C050121FB
:102750008173581C20F0010028812846EA70FFF799
:102760007FFF20462946BDE8B040FFF757BA00007A
:1027700001F07F0100EB4110C0F82021B0F91421D5
:102780004FF0000CD3FA52F2A0F81CC1A0F81A21A5
:1027900045F60040C4F2000050F8212043F60F73C4
:1027A0001A404BF280035A4040F821207047000045
:1027B000F0B581B001F07F06016800EB4610858A14
:1027C0001C46002302628383D4FA55F3A54238BF26
:1027D0002C46857D45F60047C4F200074383848478
:1027E0000DB351F8263040F230013D6DC2F20001C8
:1027F00009685B0605EBC60301EB430159BF4C605A
:102800001030CC601230018810462246FFF7CCFB16
:1028100057F8260040F60F7108404CF2800108433B
:1028200047F826000FE0018A10462246FFF7BCFB5E
:1028300040F23001386DC2F20001096800EBC600B9
:1028400001EB4000446057F8260040F63F71084015
:1028500048F2B001484047F8260001B0F0BD000042
:102860002DE9F041044600680D4650F82110080695
:1028700029D408054DD4080458BFBDE8F08145F6B9
:102880000048C4F2000858F8250040F68F72104046
:1028900048F8250004EB451797F81601002872D078
:1028A00040F23000D8F85030C2F20000026849040B
:1028B000D7F8200103EBC50102EB410179D4CE68C2
:1028C000B7F8121178E045F60040C4F2000050F865
:1028D000251048F60F72114040F8251040F23001E3
:1028E000006DC2F20001096800EBC50001EB400079
:1028F000416804EB4510026A6FF39F210A4481830B
:1029000002626DB3438B5BB320462946FFF750FF4D
:102910002AE045F60046C4F2000640F23001306D70
:10292000C2F20001096800EBC50001EB4000C2687B
:1029300004EB45106FF39F22B0F81211A0F81C2190
:1029400004F50570FFF70AFB306840F68F7100EA66
:102950000102204629463260BDE8F041FFF76ABC1B
:1029600020462946FFF766FB94F82402022808D186
:1029700094F8261229B12068FFF70CFB002084F898
:102980002602BDE8F08140F23001D8F85000C2F2D2
:102990000001096800EBC50001EB4000C668D7F8EC
:1029A0002001B7F812116FF39F263246FFF7D6FACF
:1029B00011E04E68B7F810116FF39F263246FFF70B
:1029C000CDFA58F8250040F60F71084048F2C001D2
:1029D000084348F82500B7F81C01B7F81A3130440D
:1029E000A7F81C01D7F82001002B00EB0602C7F85E
:1029F000202118BF002D05D120462946BDE8F04111
:102A0000FFF7CABBB7F814018642F5D32046294622
:102A1000BDE8F041FFF7ACBE01F07F0100EB4110D3
:102A2000B0F81C0170470000B0B5044690F82402CD
:102A3000013802280ED8606804F5037182682046C8
:102A40009047B4F812120546002908BF002D07D0A0
:102A50002846B0BD2046FFF72DFC00252846B0BD16
:102A60002046FFF71DFC2846B0BD0000F0B581B040
:102A700004680546676C266C380471D4780522D545
:102A800020464FF48061FFF765FAFEF7A7FF28465E
:102A9000FFF71AFE2846002100224023FFF746FEDA
:102AA0002846802100224023FFF740FE28680021AD
:102AB000FFF770FA6868026A012085F8240212B1F3
:102AC000284601219047B8050CD516F4007009D0AE
:102AD00020464FF40071FFF73DFA6868C16909B1FB
:102AE00028468847F80507D516F4807004D020469C
:102AF0004FF48071FFF72EFA380517D516F40060F1
:102B000014D020464FF40061FFF724FA95F8240210
:102B100085F82502042085F824022846FFF79CFD4D
:102B20006868026A12B1284602219047F80421D54C
:102B300016F480501ED02868FFF702FA6868026A0F
:102B400095F8250285F8240212B128460321904702
:102B500020464FF4805101B0BDE8F040FFF7FAB9CC
:102B6000606C01047FF58AAF00F00F012846FFF783
:102B700077FEF5E701B0F0BD80B54AB201F07F0104
:102B800000EB411000F10C01B2F1FF3FC8BF00F5AE
:102B9000867140F63F70C8BF43F60F700B7845F65C
:102BA000004CC4F2000C5CF823E048F2900200EA0A
:102BB0000E00C8BF49F2800250404CF823000120AB
:102BC000C87280BD0A7802704A7842704A88428092
:102BD0008A888280C988C1807047F1EE100A4FF65A
:102BE000FF71C0F2C03120EA010040F04070E1EE18
:102BF000100A70474D6173732053746F726167657B
:102C000020496E74657266616365004154333220F9
:102C10004D6173732053746F72616765004D61730A
:102C2000732053746F7261676520436F6E666967C6
:102C30000041727465727900582C00080000002071
:102C400038010000C0010008282D000838010020CC
:102C5000101A00001C020008322022343320121AFD
:102C600054080718040309041A032240126015408F
:102C70000902202008010104C0320904180A0208D0
:102C8000065005070581021C2C07050107131201D8
:102C90002A022D153C2E2057260201020301192A73
:102CA000111A1060120512186904111A205132808D
:102CB0007C14014004620613590D1B0821041A8973
:102CC000041A45041A39041A4D041A7D0413250EFA
:102CD0001B08490813B00214204D14140859151B81
:102CE0000841081A05081AA9081AB5041A090C1A85
:102CF0005D041A590C13F1131A086833011F1E41A1
:102D000054333220012E4469736B300959011D324E
:102D10002E303026111A709A41720A72202A1AA790
:082D2000290F53127A00000094
:040000050800018569
:00000001FF
